{
  "_format": "hh-sol-artifact-1",
  "contractName": "HeroicDonationPay",
  "sourceName": "contracts/Hdp.sol",
  "abi": [
    {
      "inputs": [
        {
          "internalType": "address",
          "name": "initialOwner",
          "type": "address"
        },
        {
          "internalType": "uint256",
          "name": "initialSupply",
          "type": "uint256"
        }
      ],
      "stateMutability": "nonpayable",
      "type": "constructor"
    },
    {
      "inputs": [],
      "name": "ECDSAInvalidSignature",
      "type": "error"
    },
    {
      "inputs": [
        {
          "internalType": "uint256",
          "name": "length",
          "type": "uint256"
        }
      ],
      "name": "ECDSAInvalidSignatureLength",
      "type": "error"
    },
    {
      "inputs": [
        {
          "internalType": "bytes32",
          "name": "s",
          "type": "bytes32"
        }
      ],
      "name": "ECDSAInvalidSignatureS",
      "type": "error"
    },
    {
      "inputs": [
        {
          "internalType": "address",
          "name": "spender",
          "type": "address"
        },
        {
          "internalType": "uint256",
          "name": "allowance",
          "type": "uint256"
        },
        {
          "internalType": "uint256",
          "name": "needed",
          "type": "uint256"
        }
      ],
      "name": "ERC20InsufficientAllowance",
      "type": "error"
    },
    {
      "inputs": [
        {
          "internalType": "address",
          "name": "sender",
          "type": "address"
        },
        {
          "internalType": "uint256",
          "name": "balance",
          "type": "uint256"
        },
        {
          "internalType": "uint256",
          "name": "needed",
          "type": "uint256"
        }
      ],
      "name": "ERC20InsufficientBalance",
      "type": "error"
    },
    {
      "inputs": [
        {
          "internalType": "address",
          "name": "approver",
          "type": "address"
        }
      ],
      "name": "ERC20InvalidApprover",
      "type": "error"
    },
    {
      "inputs": [
        {
          "internalType": "address",
          "name": "receiver",
          "type": "address"
        }
      ],
      "name": "ERC20InvalidReceiver",
      "type": "error"
    },
    {
      "inputs": [
        {
          "internalType": "address",
          "name": "sender",
          "type": "address"
        }
      ],
      "name": "ERC20InvalidSender",
      "type": "error"
    },
    {
      "inputs": [
        {
          "internalType": "address",
          "name": "spender",
          "type": "address"
        }
      ],
      "name": "ERC20InvalidSpender",
      "type": "error"
    },
    {
      "inputs": [
        {
          "internalType": "uint256",
          "name": "deadline",
          "type": "uint256"
        }
      ],
      "name": "ERC2612ExpiredSignature",
      "type": "error"
    },
    {
      "inputs": [
        {
          "internalType": "address",
          "name": "signer",
          "type": "address"
        },
        {
          "internalType": "address",
          "name": "owner",
          "type": "address"
        }
      ],
      "name": "ERC2612InvalidSigner",
      "type": "error"
    },
    {
      "inputs": [
        {
          "internalType": "address",
          "name": "account",
          "type": "address"
        },
        {
          "internalType": "uint256",
          "name": "currentNonce",
          "type": "uint256"
        }
      ],
      "name": "InvalidAccountNonce",
      "type": "error"
    },
    {
      "inputs": [],
      "name": "InvalidShortString",
      "type": "error"
    },
    {
      "inputs": [
        {
          "internalType": "address",
          "name": "owner",
          "type": "address"
        }
      ],
      "name": "OwnableInvalidOwner",
      "type": "error"
    },
    {
      "inputs": [
        {
          "internalType": "address",
          "name": "account",
          "type": "address"
        }
      ],
      "name": "OwnableUnauthorizedAccount",
      "type": "error"
    },
    {
      "inputs": [
        {
          "internalType": "string",
          "name": "str",
          "type": "string"
        }
      ],
      "name": "StringTooLong",
      "type": "error"
    },
    {
      "anonymous": false,
      "inputs": [
        {
          "indexed": true,
          "internalType": "address",
          "name": "owner",
          "type": "address"
        },
        {
          "indexed": true,
          "internalType": "address",
          "name": "spender",
          "type": "address"
        },
        {
          "indexed": false,
          "internalType": "uint256",
          "name": "value",
          "type": "uint256"
        }
      ],
      "name": "Approval",
      "type": "event"
    },
    {
      "anonymous": false,
      "inputs": [],
      "name": "EIP712DomainChanged",
      "type": "event"
    },
    {
      "anonymous": false,
      "inputs": [
        {
          "indexed": true,
          "internalType": "address",
          "name": "previousOwner",
          "type": "address"
        },
        {
          "indexed": true,
          "internalType": "address",
          "name": "newOwner",
          "type": "address"
        }
      ],
      "name": "OwnershipTransferred",
      "type": "event"
    },
    {
      "anonymous": false,
      "inputs": [
        {
          "indexed": true,
          "internalType": "address",
          "name": "from",
          "type": "address"
        },
        {
          "indexed": true,
          "internalType": "address",
          "name": "to",
          "type": "address"
        },
        {
          "indexed": false,
          "internalType": "uint256",
          "name": "value",
          "type": "uint256"
        }
      ],
      "name": "Transfer",
      "type": "event"
    },
    {
      "inputs": [],
      "name": "DOMAIN_SEPARATOR",
      "outputs": [
        {
          "internalType": "bytes32",
          "name": "",
          "type": "bytes32"
        }
      ],
      "stateMutability": "view",
      "type": "function"
    },
    {
      "inputs": [
        {
          "internalType": "address",
          "name": "owner",
          "type": "address"
        },
        {
          "internalType": "address",
          "name": "spender",
          "type": "address"
        }
      ],
      "name": "allowance",
      "outputs": [
        {
          "internalType": "uint256",
          "name": "",
          "type": "uint256"
        }
      ],
      "stateMutability": "view",
      "type": "function"
    },
    {
      "inputs": [
        {
          "internalType": "address",
          "name": "spender",
          "type": "address"
        },
        {
          "internalType": "uint256",
          "name": "value",
          "type": "uint256"
        }
      ],
      "name": "approve",
      "outputs": [
        {
          "internalType": "bool",
          "name": "",
          "type": "bool"
        }
      ],
      "stateMutability": "nonpayable",
      "type": "function"
    },
    {
      "inputs": [
        {
          "internalType": "address",
          "name": "account",
          "type": "address"
        }
      ],
      "name": "balanceOf",
      "outputs": [
        {
          "internalType": "uint256",
          "name": "",
          "type": "uint256"
        }
      ],
      "stateMutability": "view",
      "type": "function"
    },
    {
      "inputs": [],
      "name": "decimals",
      "outputs": [
        {
          "internalType": "uint8",
          "name": "",
          "type": "uint8"
        }
      ],
      "stateMutability": "view",
      "type": "function"
    },
    {
      "inputs": [],
      "name": "eip712Domain",
      "outputs": [
        {
          "internalType": "bytes1",
          "name": "fields",
          "type": "bytes1"
        },
        {
          "internalType": "string",
          "name": "name",
          "type": "string"
        },
        {
          "internalType": "string",
          "name": "version",
          "type": "string"
        },
        {
          "internalType": "uint256",
          "name": "chainId",
          "type": "uint256"
        },
        {
          "internalType": "address",
          "name": "verifyingContract",
          "type": "address"
        },
        {
          "internalType": "bytes32",
          "name": "salt",
          "type": "bytes32"
        },
        {
          "internalType": "uint256[]",
          "name": "extensions",
          "type": "uint256[]"
        }
      ],
      "stateMutability": "view",
      "type": "function"
    },
    {
      "inputs": [
        {
          "internalType": "address",
          "name": "to",
          "type": "address"
        },
        {
          "internalType": "uint256",
          "name": "amount",
          "type": "uint256"
        }
      ],
      "name": "mint",
      "outputs": [],
      "stateMutability": "nonpayable",
      "type": "function"
    },
    {
      "inputs": [],
      "name": "name",
      "outputs": [
        {
          "internalType": "string",
          "name": "",
          "type": "string"
        }
      ],
      "stateMutability": "view",
      "type": "function"
    },
    {
      "inputs": [
        {
          "internalType": "address",
          "name": "owner",
          "type": "address"
        }
      ],
      "name": "nonces",
      "outputs": [
        {
          "internalType": "uint256",
          "name": "",
          "type": "uint256"
        }
      ],
      "stateMutability": "view",
      "type": "function"
    },
    {
      "inputs": [],
      "name": "owner",
      "outputs": [
        {
          "internalType": "address",
          "name": "",
          "type": "address"
        }
      ],
      "stateMutability": "view",
      "type": "function"
    },
    {
      "inputs": [
        {
          "internalType": "address",
          "name": "owner",
          "type": "address"
        },
        {
          "internalType": "address",
          "name": "spender",
          "type": "address"
        },
        {
          "internalType": "uint256",
          "name": "value",
          "type": "uint256"
        },
        {
          "internalType": "uint256",
          "name": "deadline",
          "type": "uint256"
        },
        {
          "internalType": "uint8",
          "name": "v",
          "type": "uint8"
        },
        {
          "internalType": "bytes32",
          "name": "r",
          "type": "bytes32"
        },
        {
          "internalType": "bytes32",
          "name": "s",
          "type": "bytes32"
        }
      ],
      "name": "permit",
      "outputs": [],
      "stateMutability": "nonpayable",
      "type": "function"
    },
    {
      "inputs": [],
      "name": "renounceOwnership",
      "outputs": [],
      "stateMutability": "nonpayable",
      "type": "function"
    },
    {
      "inputs": [],
      "name": "symbol",
      "outputs": [
        {
          "internalType": "string",
          "name": "",
          "type": "string"
        }
      ],
      "stateMutability": "view",
      "type": "function"
    },
    {
      "inputs": [],
      "name": "totalSupply",
      "outputs": [
        {
          "internalType": "uint256",
          "name": "",
          "type": "uint256"
        }
      ],
      "stateMutability": "view",
      "type": "function"
    },
    {
      "inputs": [
        {
          "internalType": "address",
          "name": "to",
          "type": "address"
        },
        {
          "internalType": "uint256",
          "name": "value",
          "type": "uint256"
        }
      ],
      "name": "transfer",
      "outputs": [
        {
          "internalType": "bool",
          "name": "",
          "type": "bool"
        }
      ],
      "stateMutability": "nonpayable",
      "type": "function"
    },
    {
      "inputs": [
        {
          "internalType": "address",
          "name": "from",
          "type": "address"
        },
        {
          "internalType": "address",
          "name": "to",
          "type": "address"
        },
        {
          "internalType": "uint256",
          "name": "value",
          "type": "uint256"
        }
      ],
      "name": "transferFrom",
      "outputs": [
        {
          "internalType": "bool",
          "name": "",
          "type": "bool"
        }
      ],
      "stateMutability": "nonpayable",
      "type": "function"
    },
    {
      "inputs": [
        {
          "internalType": "address",
          "name": "newOwner",
          "type": "address"
        }
      ],
      "name": "transferOwnership",
      "outputs": [],
      "stateMutability": "nonpayable",
      "type": "function"
    }
  ],
  "bytecode": "0x61016060405234801561001157600080fd5b5060405161185338038061185383398101604081905261003091610416565b604051806040016040528060138152602001724865726f696320446f6e6174696f6e2050617960681b81525080604051806040016040528060018152602001603160f81b81525084604051806040016040528060138152602001724865726f696320446f6e6174696f6e2050617960681b8152506040518060400160405280600381526020016204844560ec1b81525081600390816100cf91906104ef565b5060046100dc82826104ef565b5050506001600160a01b03811661010e57604051631e4fbdf760e01b8152600060048201526024015b60405180910390fd5b610117816101ef565b50610123826006610241565b61012052610132816007610241565b61014052815160208084019190912060e052815190820120610100524660a0526101bf60e05161010051604080517f8b73c3c69bb8fe3d512ecc4cf759cc79239f7b179b0ffacaa9a75d522b39400f60208201529081019290925260608201524660808201523060a082015260009060c00160405160208183030381529060405280519060200120905090565b60805250503060c052506101e8336101d96012600a6106aa565b6101e390846106c0565b610274565b505061075c565b600580546001600160a01b038381166001600160a01b0319831681179093556040519116919082907f8be0079c531659141344cd1fd0a4f28419497f9722a3daafe3b4186f6b6457e090600090a35050565b600060208351101561025d57610256836102ae565b905061026e565b8161026884826104ef565b5060ff90505b92915050565b6001600160a01b03821661029e5760405163ec442f0560e01b815260006004820152602401610105565b6102aa600083836102ec565b5050565b600080829050601f815111156102d9578260405163305a27a960e01b815260040161010591906106d7565b80516102e482610725565b179392505050565b6001600160a01b03831661031757806002600082825461030c9190610749565b909155506103899050565b6001600160a01b0383166000908152602081905260409020548181101561036a5760405163391434e360e21b81526001600160a01b03851660048201526024810182905260448101839052606401610105565b6001600160a01b03841660009081526020819052604090209082900390555b6001600160a01b0382166103a5576002805482900390556103c4565b6001600160a01b03821660009081526020819052604090208054820190555b816001600160a01b0316836001600160a01b03167fddf252ad1be2c89b69c2b068fc378daa952ba7f163c4a11628f55a4df523b3ef8360405161040991815260200190565b60405180910390a3505050565b6000806040838503121561042957600080fd5b82516001600160a01b038116811461044057600080fd5b6020939093015192949293505050565b634e487b7160e01b600052604160045260246000fd5b600181811c9082168061047a57607f821691505b60208210810361049a57634e487b7160e01b600052602260045260246000fd5b50919050565b601f8211156104ea57806000526020600020601f840160051c810160208510156104c75750805b601f840160051c820191505b818110156104e757600081556001016104d3565b50505b505050565b81516001600160401b0381111561050857610508610450565b61051c816105168454610466565b846104a0565b6020601f82116001811461055057600083156105385750848201515b600019600385901b1c1916600184901b1784556104e7565b600084815260208120601f198516915b828110156105805787850151825560209485019460019092019101610560565b508482101561059e5786840151600019600387901b60f8161c191681555b50505050600190811b01905550565b634e487b7160e01b600052601160045260246000fd5b6001815b60018411156105fe578085048111156105e2576105e26105ad565b60018416156105f057908102905b60019390931c9280026105c7565b935093915050565b6000826106155750600161026e565b816106225750600061026e565b816001811461063857600281146106425761065e565b600191505061026e565b60ff841115610653576106536105ad565b50506001821b61026e565b5060208310610133831016604e8410600b8410161715610681575081810a61026e565b61068e60001984846105c3565b80600019048211156106a2576106a26105ad565b029392505050565b60006106b960ff841683610606565b9392505050565b808202811582820484141761026e5761026e6105ad565b602081526000825180602084015260005b8181101561070557602081860181015160408684010152016106e8565b506000604082850101526040601f19601f83011684010191505092915050565b8051602080830151919081101561049a5760001960209190910360031b1b16919050565b8082018082111561026e5761026e6105ad565b60805160a05160c05160e05161010051610120516101405161109d6107b660003960006108a001526000610873015260006107660152600061073e01526000610699015260006106c3015260006106ed015261109d6000f3fe608060405234801561001057600080fd5b506004361061010b5760003560e01c8063715018a6116100a257806395d89b411161007157806395d89b411461021c578063a9059cbb14610224578063d505accf14610237578063dd62ed3e1461024a578063f2fde38b1461028357600080fd5b8063715018a6146101cb5780637ecebe00146101d357806384b0196e146101e65780638da5cb5b1461020157600080fd5b8063313ce567116100de578063313ce567146101765780633644e5151461018557806340c10f191461018d57806370a08231146101a257600080fd5b806306fdde0314610110578063095ea7b31461012e57806318160ddd1461015157806323b872dd14610163575b600080fd5b610118610296565b6040516101259190610e00565b60405180910390f35b61014161013c366004610e36565b610328565b6040519015158152602001610125565b6002545b604051908152602001610125565b610141610171366004610e60565b610342565b60405160128152602001610125565b610155610366565b6101a061019b366004610e36565b610375565b005b6101556101b0366004610e9d565b6001600160a01b031660009081526020819052604090205490565b6101a061038b565b6101556101e1366004610e9d565b61039f565b6101ee6103bd565b6040516101259796959493929190610eb8565b6005546040516001600160a01b039091168152602001610125565b610118610403565b610141610232366004610e36565b610412565b6101a0610245366004610f50565b610420565b610155610258366004610fc3565b6001600160a01b03918216600090815260016020908152604080832093909416825291909152205490565b6101a0610291366004610e9d565b61055f565b6060600380546102a590610ff6565b80601f01602080910402602001604051908101604052809291908181526020018280546102d190610ff6565b801561031e5780601f106102f35761010080835404028352916020019161031e565b820191906000526020600020905b81548152906001019060200180831161030157829003601f168201915b5050505050905090565b60003361033681858561059d565b60019150505b92915050565b6000336103508582856105af565b61035b85858561062d565b506001949350505050565b600061037061068c565b905090565b61037d6107b7565b61038782826107e4565b5050565b6103936107b7565b61039d600061081a565b565b6001600160a01b03811660009081526008602052604081205461033c565b6000606080600080600060606103d161086c565b6103d9610899565b60408051600080825260208201909252600f60f81b9b939a50919850469750309650945092509050565b6060600480546102a590610ff6565b60003361033681858561062d565b834211156104495760405163313c898160e11b8152600481018590526024015b60405180910390fd5b60007f6e71edae12b1b97f4d1f60370fef10105fa2faae0126114a169c64845d6126c98888886104968c6001600160a01b0316600090815260086020526040902080546001810190915590565b6040805160208101969096526001600160a01b0394851690860152929091166060840152608083015260a082015260c0810186905260e00160405160208183030381529060405280519060200120905060006104f1826108c6565b90506000610501828787876108f3565b9050896001600160a01b0316816001600160a01b031614610548576040516325c0072360e11b81526001600160a01b0380831660048301528b166024820152604401610440565b6105538a8a8a61059d565b50505050505050505050565b6105676107b7565b6001600160a01b03811661059157604051631e4fbdf760e01b815260006004820152602401610440565b61059a8161081a565b50565b6105aa8383836001610921565b505050565b6001600160a01b038381166000908152600160209081526040808320938616835292905220546000198114610627578181101561061857604051637dc7a0d960e11b81526001600160a01b03841660048201526024810182905260448101839052606401610440565b61062784848484036000610921565b50505050565b6001600160a01b03831661065757604051634b637e8f60e11b815260006004820152602401610440565b6001600160a01b0382166106815760405163ec442f0560e01b815260006004820152602401610440565b6105aa8383836109f6565b6000306001600160a01b037f0000000000000000000000000000000000000000000000000000000000000000161480156106e557507f000000000000000000000000000000000000000000000000000000000000000046145b1561070f57507f000000000000000000000000000000000000000000000000000000000000000090565b610370604080517f8b73c3c69bb8fe3d512ecc4cf759cc79239f7b179b0ffacaa9a75d522b39400f60208201527f0000000000000000000000000000000000000000000000000000000000000000918101919091527f000000000000000000000000000000000000000000000000000000000000000060608201524660808201523060a082015260009060c00160405160208183030381529060405280519060200120905090565b6005546001600160a01b0316331461039d5760405163118cdaa760e01b8152336004820152602401610440565b6001600160a01b03821661080e5760405163ec442f0560e01b815260006004820152602401610440565b610387600083836109f6565b600580546001600160a01b038381166001600160a01b0319831681179093556040519116919082907f8be0079c531659141344cd1fd0a4f28419497f9722a3daafe3b4186f6b6457e090600090a35050565b60606103707f00000000000000000000000000000000000000000000000000000000000000006006610b20565b60606103707f00000000000000000000000000000000000000000000000000000000000000006007610b20565b600061033c6108d361068c565b8360405161190160f01b8152600281019290925260228201526042902090565b60008060008061090588888888610bcb565b9250925092506109158282610c9a565b50909695505050505050565b6001600160a01b03841661094b5760405163e602df0560e01b815260006004820152602401610440565b6001600160a01b03831661097557604051634a1406b160e11b815260006004820152602401610440565b6001600160a01b038085166000908152600160209081526040808320938716835292905220829055801561062757826001600160a01b0316846001600160a01b03167f8c5be1e5ebec7d5bd14f71427d1e84f3dd0314c0f7b2291e5b200ac8c7c3b925846040516109e891815260200190565b60405180910390a350505050565b6001600160a01b038316610a21578060026000828254610a169190611030565b90915550610a939050565b6001600160a01b03831660009081526020819052604090205481811015610a745760405163391434e360e21b81526001600160a01b03851660048201526024810182905260448101839052606401610440565b6001600160a01b03841660009081526020819052604090209082900390555b6001600160a01b038216610aaf57600280548290039055610ace565b6001600160a01b03821660009081526020819052604090208054820190555b816001600160a01b0316836001600160a01b03167fddf252ad1be2c89b69c2b068fc378daa952ba7f163c4a11628f55a4df523b3ef83604051610b1391815260200190565b60405180910390a3505050565b606060ff8314610b3a57610b3383610d53565b905061033c565b818054610b4690610ff6565b80601f0160208091040260200160405190810160405280929190818152602001828054610b7290610ff6565b8015610bbf5780601f10610b9457610100808354040283529160200191610bbf565b820191906000526020600020905b815481529060010190602001808311610ba257829003601f168201915b5050505050905061033c565b600080807f7fffffffffffffffffffffffffffffff5d576e7357a4501ddfe92f46681b20a0841115610c065750600091506003905082610c90565b604080516000808252602082018084528a905260ff891692820192909252606081018790526080810186905260019060a0016020604051602081039080840390855afa158015610c5a573d6000803e3d6000fd5b5050604051601f1901519150506001600160a01b038116610c8657506000925060019150829050610c90565b9250600091508190505b9450945094915050565b6000826003811115610cae57610cae611051565b03610cb7575050565b6001826003811115610ccb57610ccb611051565b03610ce95760405163f645eedf60e01b815260040160405180910390fd5b6002826003811115610cfd57610cfd611051565b03610d1e5760405163fce698f760e01b815260048101829052602401610440565b6003826003811115610d3257610d32611051565b03610387576040516335e2f38360e21b815260048101829052602401610440565b60606000610d6083610d92565b604080516020808252818301909252919250600091906020820181803683375050509182525060208101929092525090565b600060ff8216601f81111561033c57604051632cd44ac360e21b815260040160405180910390fd5b6000815180845260005b81811015610de057602081850181015186830182015201610dc4565b506000602082860101526020601f19601f83011685010191505092915050565b602081526000610e136020830184610dba565b9392505050565b80356001600160a01b0381168114610e3157600080fd5b919050565b60008060408385031215610e4957600080fd5b610e5283610e1a565b946020939093013593505050565b600080600060608486031215610e7557600080fd5b610e7e84610e1a565b9250610e8c60208501610e1a565b929592945050506040919091013590565b600060208284031215610eaf57600080fd5b610e1382610e1a565b60ff60f81b8816815260e060208201526000610ed760e0830189610dba565b8281036040840152610ee98189610dba565b606084018890526001600160a01b038716608085015260a0840186905283810360c08501528451808252602080870193509091019060005b81811015610f3f578351835260209384019390920191600101610f21565b50909b9a5050505050505050505050565b600080600080600080600060e0888a031215610f6b57600080fd5b610f7488610e1a565b9650610f8260208901610e1a565b95506040880135945060608801359350608088013560ff81168114610fa657600080fd5b9699959850939692959460a0840135945060c09093013592915050565b60008060408385031215610fd657600080fd5b610fdf83610e1a565b9150610fed60208401610e1a565b90509250929050565b600181811c9082168061100a57607f821691505b60208210810361102a57634e487b7160e01b600052602260045260246000fd5b50919050565b8082018082111561033c57634e487b7160e01b600052601160045260246000fd5b634e487b7160e01b600052602160045260246000fdfea264697066735822122065247e8e9d803f1e10d123aaf3872910177480765d0c7fccfb9d36312252cf3c64736f6c634300081a0033",
  "linkReferences": {},
  "deployedLinkReferences": {}
}